{
  "contractName": "Faucet",
  "abi": [
    {
      "inputs": [],
      "name": "numOfFunders",
      "outputs": [
        {
          "internalType": "uint256",
          "name": "",
          "type": "uint256"
        }
      ],
      "stateMutability": "view",
      "type": "function",
      "constant": true
    },
    {
      "stateMutability": "payable",
      "type": "receive",
      "payable": true
    },
    {
      "inputs": [],
      "name": "addFunds",
      "outputs": [],
      "stateMutability": "payable",
      "type": "function",
      "payable": true
    },
    {
      "inputs": [
        {
          "internalType": "uint256",
          "name": "_amount",
          "type": "uint256"
        }
      ],
      "name": "withdraw",
      "outputs": [],
      "stateMutability": "nonpayable",
      "type": "function"
    },
    {
      "inputs": [
        {
          "internalType": "uint8",
          "name": "_index",
          "type": "uint8"
        }
      ],
      "name": "getFunderAtIndex",
      "outputs": [
        {
          "internalType": "address",
          "name": "",
          "type": "address"
        }
      ],
      "stateMutability": "view",
      "type": "function",
      "constant": true
    },
    {
      "inputs": [],
      "name": "getAllFunders",
      "outputs": [
        {
          "internalType": "address[]",
          "name": "",
          "type": "address[]"
        }
      ],
      "stateMutability": "view",
      "type": "function",
      "constant": true
    }
  ],
  "bytecode": "0x608060405234801561001057600080fd5b506107d1806100206000396000f3fe60806040526004361061004e5760003560e01c80630a93cf331461005a5780632e1a7d4d146100975780636fbbb55d146100c0578063a26759cb146100eb578063af7f2c9b146100f557610055565b3661005557005b600080fd5b34801561006657600080fd5b50610081600480360381019061007c9190610453565b610120565b60405161008e91906104c1565b60405180910390f35b3480156100a357600080fd5b506100be60048036038101906100b99190610512565b610160565b005b3480156100cc57600080fd5b506100d56101f7565b6040516100e291906105fd565b60405180910390f35b6100f36102f1565b005b34801561010157600080fd5b5061010a61040f565b604051610117919061062e565b60405180910390f35b6000600160008360ff16815260200190815260200160002060009054906101000a900473ffffffffffffffffffffffffffffffffffffffff169050919050565b80671bc16d674ec800008111156101ac576040517f08c379a00000000000000000000000000000000000000000000000000000000081526004016101a3906106a6565b60405180910390fd5b3373ffffffffffffffffffffffffffffffffffffffff166108fc839081150290604051600060405180830381858888f193505050501580156101f2573d6000803e3d6000fd5b505050565b6060600060025467ffffffffffffffff811115610217576102166106c6565b5b6040519080825280602002602001820160405280156102455781602001602082028036833780820191505090505b50905060005b6002548110156102e9576001600082815260200190815260200160002060009054906101000a900473ffffffffffffffffffffffffffffffffffffffff1682828151811061029c5761029b6106f5565b5b602002602001019073ffffffffffffffffffffffffffffffffffffffff16908173ffffffffffffffffffffffffffffffffffffffff168152505080806102e190610753565b91505061024b565b508091505090565b60003390506000808273ffffffffffffffffffffffffffffffffffffffff1673ffffffffffffffffffffffffffffffffffffffff16815260200190815260200160002060009054906101000a900460ff1661040c5760006002600081548092919061035b90610753565b91905055905060016000808473ffffffffffffffffffffffffffffffffffffffff1673ffffffffffffffffffffffffffffffffffffffff16815260200190815260200160002060006101000a81548160ff021916908315150217905550816001600083815260200190815260200160002060006101000a81548173ffffffffffffffffffffffffffffffffffffffff021916908373ffffffffffffffffffffffffffffffffffffffff160217905550505b50565b60025481565b600080fd5b600060ff82169050919050565b6104308161041a565b811461043b57600080fd5b50565b60008135905061044d81610427565b92915050565b60006020828403121561046957610468610415565b5b60006104778482850161043e565b91505092915050565b600073ffffffffffffffffffffffffffffffffffffffff82169050919050565b60006104ab82610480565b9050919050565b6104bb816104a0565b82525050565b60006020820190506104d660008301846104b2565b92915050565b6000819050919050565b6104ef816104dc565b81146104fa57600080fd5b50565b60008135905061050c816104e6565b92915050565b60006020828403121561052857610527610415565b5b6000610536848285016104fd565b91505092915050565b600081519050919050565b600082825260208201905092915050565b6000819050602082019050919050565b610574816104a0565b82525050565b6000610586838361056b565b60208301905092915050565b6000602082019050919050565b60006105aa8261053f565b6105b4818561054a565b93506105bf8361055b565b8060005b838110156105f05781516105d7888261057a565b97506105e283610592565b9250506001810190506105c3565b5085935050505092915050565b60006020820190508181036000830152610617818461059f565b905092915050565b610628816104dc565b82525050565b6000602082019050610643600083018461061f565b92915050565b600082825260208201905092915050565b7f4e6f7420656e6f7567682066756e647320696e20636f6e747261637400000000600082015250565b6000610690601c83610649565b915061069b8261065a565b602082019050919050565b600060208201905081810360008301526106bf81610683565b9050919050565b7f4e487b7100000000000000000000000000000000000000000000000000000000600052604160045260246000fd5b7f4e487b7100000000000000000000000000000000000000000000000000000000600052603260045260246000fd5b7f4e487b7100000000000000000000000000000000000000000000000000000000600052601160045260246000fd5b600061075e826104dc565b91507fffffffffffffffffffffffffffffffffffffffffffffffffffffffffffffffff82036107905761078f610724565b5b60018201905091905056fea2646970667358221220d519be145b125dd9b083ea7de37937ba64c50926877609d4eb4eecd45cd80e2464736f6c634300080d0033",
  "immutableReferences": {},
  "source": "//SPDX-License-Identifier:MIT\r\npragma solidity >=0.4.22 <0.9.0;\r\n\r\n\r\ncontract Faucet {\r\n\r\n    mapping(address => bool) private funders;   //maps an address to a bool, all address are mapped to false be drfault\r\n    mapping(uint => address) private lutFunders; //maps a uint to an address\r\n    uint public numOfFunders;   //a uint to track the number of funders\r\n\r\n    modifier withdrawLimit(uint _amount){\r\n        require(_amount <= 2 ether, \"Not enough funds in contract\");\r\n        _;\r\n    }\r\n\r\n    receive() external payable{}\r\n\r\n    function addFunds() external payable{\r\n        address funder = msg.sender;    //makes who ever is calling the function \"funder\"\r\n        \r\n        if(!funders[funder]){   //checks to see if the funder that calls is equal to false\r\n            uint index = numOfFunders++;    //assigns index the number of funders\r\n            funders[funder] = true;     //makes the bool assigned to the address equal to true\r\n            lutFunders[index] = funder;     //assigns the funders address to the lutFunders mapping\r\n        }\r\n    }\r\n\r\n\r\n    function withdraw(uint _amount) external withdrawLimit(_amount){\r\n        payable(msg.sender).transfer(_amount);\r\n\r\n    }\r\n\r\n    function getFunderAtIndex(uint8 _index) external view returns(address){\r\n        return lutFunders[_index];\r\n    }\r\n\r\n    function getAllFunders()external view returns (address[] memory){\r\n        address[] memory _funders = new address[](numOfFunders);\r\n\r\n        for(uint i = 0; i < numOfFunders; i++){\r\n            _funders[i] = lutFunders[i];\r\n        }\r\n        return _funders;\r\n    }\r\n}",
  "sourcePath": "C:\\Users\\20193\\Desktop\\blockchain\\myfaucet1\\contracts\\Faucet.sol",
  "compiler": {
    "name": "solc",
    "version": "0.8.13+commit.abaa5c0e.Emscripten.clang"
  },
  "schemaVersion": "3.4.8",
  "updatedAt": "2022-08-14T16:13:55.969Z",
  "networkType": "ethereum",
  "devdoc": {
    "kind": "dev",
    "methods": {},
    "version": 1
  },
  "userdoc": {
    "kind": "user",
    "methods": {},
    "version": 1
  }
}